:100000000C942A000C943C000C943C000C943C0092
:100010000C943C000C943C000C943C000C943C0070
:100020000C943C000C943C000C943C000C943C0060
:100030000C943C000C943C000C943C000C943C0050
:100040000C943C000C943C000C943C000C943C0040
:100050000C943C0011241FBECFE5D8E0DEBFCDBF1D
:1000600020E0A0E6B0E001C01D92A236B207E1F7A1
:100070000E943E000C9483000C94000010926100DA
:10008000109260008FEF8ABB87BB84BB81BB21E0ED
:1000900030E044E052E061E0C9010090600002C03D
:1000A000880F991F0A94E2F785BB48BB7FEF8BE46A
:1000B0009DE1715080409040E1F700C0000058BBC6
:1000C0007FEF82E597E0715080409040E1F700C0FB
:1000D000000068BB7FEF8EE994E271508040904051
:1000E000E1F700C0000080916000909161000196EE
:1000F0009093610080936000089771F61092610000
:0A01000010926000C9CFF894FFCF01
:00000001FF
