:100000000C942A000C943F000C943F000C943F0089
:100010000C943F000C943F000C943F000C943F0064
:100020000C943F000C943F000C943F000C943F0054
:100030000C943F000C943F000C943F000C943F0044
:100040000C943F000C943F000C943F000C943F0034
:100050000C943F0011241FBECFE5D4E0DEBFCDBF1E
:1000600010E0A0E6B0E0E4E9FBE002C005900D92EC
:10007000A03BB107D9F70E94EA020C94C8050C9482
:10008000000084EA86BF06B607FEFDCF089584E926
:1000900086BF089583B984E886BF06B607FEFDCF04
:1000A000089584EC86BF06B607FEFDCF83B190E0CD
:1000B000089584E886BF06B607FEFDCF83B190E0C1
:1000C00008956AE070E00E94490424E0660F771FFB
:1000D0002A95E1F7862B972B08959C01AC0184E0CB
:1000E000559547958A95E1F76AE0649FC001659F41
:1000F000900D11242F703327820F931F0895EF92D4
:10010000FF920F931F93CF93DF93EC018B017A0142
:100110000E94410080ED90E00E944A0080E090E063
:100120000E944A000E94410081ED90E00E944A0036
:100130000E9451000E946D00F701918380830E940C
:1001400051000E946D00F801918380830E94590044
:100150000E946D009983888384E986BFDF91CF91E7
:100160001F910F91FF90EF900895EF92FF920F93E0
:100170001F93CF93DF93EC018B017A010E94410022
:1001800080ED90E00E944A0084E090E00E944A00E6
:100190000E94410081ED90E00E944A000E945100BF
:1001A0000E946D00F701918380830E9451000E949C
:1001B0006D00F801918380830E9459000E946D00B8
:1001C0009983888384E986BFDF91CF911F910F9136
:1001D000FF90EF90089511B880E280B90895A29A37
:1001E000AA988FEB93E00197F1F700C00000A29866
:1001F000AA9A9AEB9A95F1F700C083E393E00197EE
:10020000F1F700C000000895A29AAA98811559F04C
:100210008AE18A95F1F700C0A298AA9A82E98A95A4
:10022000F1F700C008958DEA8A95F1F70000A298D1
:10023000AA9A0895A29AAA98A298AA9A8AE18A9557
:10024000F1F700C083B392E99A95F1F700C082FB01
:10025000882780F908950F931F93CF93C82F08E044
:1002600010E08C2F81700E940401C695015010404F
:10027000C1F7CF911F910F910895EF92FF921F93B5
:10028000CF93DF93C0E0D0E010E0EE24E394F12CB4
:100290000E941A01811539F0C7010C2E01C0880F88
:1002A0000A94EAF7182B2196C830D10589F7812FD7
:1002B000DF91CF911F91FF90EF9008958F929F92C1
:1002C000AF92BF92CF92DF92EF92FF92CF930E94B4
:1002D000EF008CEC0E942B0184E40E942B012FE79D
:1002E0008FE492E1215080409040E1F700C000008F
:1002F0000E94EF008CEC0E942B018EEB0E942B01E0
:100300000E943D01C82F0E943D01782F6C2F072EBF
:10031000000C880B990B0E94A30420E030E040E819
:100320005DE34B015C01C501B4010E9407056B014F
:100330007C01C701B601CF91FF90EF90DF90CF9085
:10034000BF90AF909F908F900895EF92FF920F9380
:100350001F93CF93DF93FC019B017A0163307105FA
:100360001CF4245F3F4F3197CF0164E670E00E9498
:100370004904EB018C012F5F3F4F4DE0429FC001CC
:10038000439F900D112465E070E00E9449049B0199
:100390002E0D3F1D200F311F17FF02C00D5F1F4F95
:1003A000C8019595879595958795280F391FCF0199
:1003B00060E971E00E944904C901860F971F45E07A
:1003C0004C9F90014D9F300D1124820F931F67E0C9
:1003D00070E00E9449048730910570F4880F991FDE
:1003E000FC01E05AFF4F80819181DF91CF911F91F5
:1003F0000F91FF90EF9008958EE690E0F6CF969AD9
:1004000082E08A95F1F700C0969808951F93CF93E4
:10041000DF93C82F6115D1F0949A959881B38F60BE
:1004200081BBD2B31D2F107F8C2F82958F70812BB3
:1004300082BB0E94FF01CF70C12BC2BB0E94FF0193
:10044000DF60D2BBDF91CF911F9108959498E5CFE3
:100450009498959A81B3807F81BB969A82E08A9521
:10046000F1F700C080B3969892E09A95F1F700C03A
:10047000969A92E09A95F1F700C090B396989F7083
:100480008295807F892B08950E94280287FDFCCFEA
:100490008AE08A95F1F700C00C942802CF93C82F08
:1004A0000E94440260E08C2FCF910C940602CF93FF
:1004B000C82F0E94440261E08C2FCF910C94060259
:1004C000611103C080580C944E02613011F48054C5
:1004D000FACF623011F48C56F6CF8C52F4CF0E94D2
:1004E000440290E0089581E00C944E0282E00C9466
:1004F0004E02CF93C82F0E944402CA30A1F4843127
:1005000060F090EC980F943150F084518C3248F4A4
:1005100084E58058CF910C944E0280E4FACF84E1B8
:10052000F8CF80E0F6CF61E08C2FCF910C940602DB
:10053000CF93DF93EC018991811103C0DF91CF91BB
:1005400008950E947902CE01F5CFCF93DF93EC019D
:10055000FE0184912196811103C0DF91CF9108950E
:100560000E947902F5CFCF93C82F81B38F6781BBEB
:100570008FEF9CE70197F1F700C00000919A909AE5
:100580000E94FF018FE097E20197F1F700C00000A1
:100590000E94FF019AEA9A95F1F700C00E94FF01BC
:1005A0008AEA8A95F1F700C090980E94FF019AEAC2
:1005B0009A95F1F700C088E20E944E0288E00E94FE
:1005C0004E020E94730286E00E944E028C2FCF9151
:1005D0000C944E02CDB7DEB7C454D1090FB6F894CF
:1005E000DEBF0FBECDBF8FEF81BB87BB8EE00E9409
:1005F000B3020E94EB0018AA1FA61EA61DA61CA6E9
:100600001BA61AA619A618A61FA21EA21DA28AE33F
:10061000982E0AE010E098EE292E93E0392E0E94E1
:100620005E016B017C0184E5898385E68A838DE622
:100630008B8380E78C839D8280E28E83C9AADAAAAD
:10064000EBAAFCAA69A97AA98BA99CA90E947104AA
:10065000CB01B8010E944904605D6F83805D88878B
:100660008EE2898720E030E040E251E4CDAADEAAA4
:10067000EFAAF8AE6DA97EA98FA998AD0E940705D3
:1006800069AF7AAF8BAF9CAF69AD7AAD8BAD9CADE6
:100690000E947104CB01B8010E944904805D8A87E1
:1006A00020E030E048EC52E4CDAEDEAEEFAE219675
:1006B000FFAE219721966CAD7DAD8EAD9FAD21979C
:1006C0000E94070522966FAF229723967FAF23974C
:1006D00024968FAF249725969FAF259725966CADCE
:1006E0007DAD8EAD9FAD25970E947104CB01B80101
:1006F0000E944904805D8B878FED8C8783E48D8712
:100700001E8620E030E0A90126013701C301B201B5
:100710000E94020518160CF0BAC08FEF88BBAE011C
:10072000455D5F4FBE01635D7F4FCE018F960E9496
:100730007F00AE014B5D5F4FBE01695D7F4FCE0113
:1007400089960E94B500E9A4FAA420E3E21A28EFF2
:10075000F20AFAA6E9A68FA598A9B8010E94490451
:10076000605D6C8F805D8D8F9E8E8DA59EA5B8017E
:100770000E944904605D6F8F805D88A399A28BA55C
:100780009CA5B8010E944904605D6AA3805D8BA3AB
:100790001CA2C701B1010E944904605D698BC701B9
:1007A00064E670E00E944904CB01B8010E9449044C
:1007B000805D8A8BC701B8010E944904282FCB01B4
:1007C000B8010E944904805D8B8B205D2C8B2FE249
:1007D0002D8BCFA0D8A4C601B8010E944904605D4A
:1007E0006E8B805D8F8B288FADA0BEA0C501B80138
:1007F0000E944904605D698F805D8A8F1B8E60E076
:1008000080E00E946002CE014C960E9498028FE721
:1008100098E321E0815090402040E1F700C00000C3
:1008200061E080E00E946002CE0141960E94980241
:100830008FE798E321E0815090402040E1F700C02D
:10084000000062E080E00E946002A501B601C701DD
:100850000E94A5010E9498028FE798E321E0815051
:1008600090402040E1F700C0000063E080E00E947B
:100870006002CE0101960E9498028FEF90E722E07D
:10088000815090402040E1F700C00000C8CE85E5CF
:1008900045CF97FB072E16F4009407D077FD09D0BB
:1008A0000E945D0407FC05D03EF4909581959F4F12
:1008B0000895709561957F4F0895AA1BBB1B51E168
:1008C00007C0AA1FBB1FA617B70710F0A61BB70BC0
:1008D000881F991F5A95A9F780959095BC01CD0165
:1008E00008950E9478046894B1110C94FC04089552
:1008F0000E94E10488F09F5798F0B92F9927B751CB
:10090000B0F0E1F0660F771F881F991F1AF0BA95B3
:10091000C9F714C0B13091F00E94FB04B1E0089512
:100920000C94FB04672F782F8827B85F39F0B93F04
:10093000CCF3869577956795B395D9F786F70C94A0
:10094000C005E89404C097FB16F40E94C0059923E3
:10095000A9F0F92F96E9BB279395F695879577959A
:100960006795B795F111F8CFFAF4BB0F11F460FF5A
:100970001BC06F5F7F4F8F4F9F4F16C0882311F0B2
:1009800096E911C0772321F09EE8872F762F05C0C6
:10099000662371F096E8862F70E060E02AF09A9561
:1009A000660F771F881FDAF7880F9695879597F956
:1009B000089557FD9058440F551F59F05F3F71F04F
:1009C0004795880F97FB991F61F09F3F79F08795B6
:1009D0000895121613061406551FF2CF4695F1DF3F
:1009E00008C0161617061806991FF1CF86957105CF
:1009F000610508940895E894BB2766277727CB0103
:100A000097F908950E94740508F48FEF08950E94E5
:100A10001A050C94AF050E94A10538F00E94A805A4
:100A200020F0952311F00C9498050C949E05112448
:100A30000C94FC040E94D90470F3959FC1F3950FA8
:100A400050E0551F629FF001729FBB27F00DB11D52
:100A5000639FAA27F00DB11DAA1F649F6627B00DE2
:100A6000A11D661F829F2227B00DA11D621F739FCB
:100A7000B00DA11D621F839FA00D611D221F749FD9
:100A80003327A00D611D231F849F600D211D822F20
:100A9000762F6A2F11249F5750409AF0F1F0882347
:100AA0004AF0EE0FFF1FBB1F661F771F881F915074
:100AB0005040A9F79E3F510580F00C9498050C9486
:100AC000FC045F3FE4F3983ED4F3869577956795F1
:100AD000B795F795E7959F5FC1F7FE2B880F911D9E
:100AE0009695879597F90895990F0008550FAA0BC9
:100AF000E0E8FEEF16161706E807F907C0F0121631
:100B00001306E407F50798F0621B730B840B950B33
:100B100039F40A2661F0232B242B252B21F4089588
:100B20000A2609F4A140A6958FEF811D811D089525
:100B300097F99F6780E870E060E008959FEF80EC90
:100B4000089500240A941616170618060906089533
:100B500000240A9412161306140605060895092E99
:100B60000394000C11F4882352F0BB0F40F4BF2B08
:100B700011F460FF04C06F5F7F4F8F4F9F4F089548
:100B800090958095709561957F4F8F4F9F4F0895F9
:040B9000F894FFCF07
:100B940076007F0086008D0095009F00A800756E8A
:100BA4006B6E6F776E005361747572646179005374
:100BB400756E646179004D6F6E646179005475657A
:100BC40073646179005765646E6573646179005478
:100BD40068757273646179004672696461790000B2
:00000001FF
