:100000000C942A000C943F000C943F000C943F0089
:100010000C943F000C943F000C943F000C943F0064
:100020000C943F000C943F000C943F000C943F0054
:100030000C943F000C943F000C943F000C943F0044
:100040000C943F000C943F000C943F000C943F0034
:100050000C943F0011241FBECFE5D4E0DEBFCDBF1E
:1000600010E0A0E6B0E0E2EAF1E002C005900D92F7
:10007000AA36B107D9F70E9441000C94CF000C9426
:1000800000008F929F92AF92BF92CF92DF92EF9239
:10009000FF921F93DF93CF93CDB7DEB766970FB66E
:1000A000F894DEBF0FBECDBF8FEF84BB81BB10E0E5
:1000B00050E040E028ECC22ED12C7E010894E11CD7
:1000C000F11C9BE0892E912C8C0E9D1E81E0A82EA8
:1000D000B12C80E197E2F6013197F1F70197D9F75A
:1000E0001F5F1C3310F05F5F10E05C3310F04F5F58
:1000F00050E0483108F040E0D701E0E6F0E08AE067
:1001000001900D928150E1F7842F6AE00E94C300B4
:100110008B871C86842F0E94C3009D871E86852F97
:100120000E94C3008F87188A852F0E94C300998B75
:100130001A8A812F0E94C3008B8B1C8A812F0E94F8
:10014000C3009D8B1E8AD40120E030E0ED91FC912C
:100150001197EE0DFF1D808185BBC501022E02C0E7
:10016000880F991F0A94E2F782BB80E197E2F601BB
:100170003197F1F70197D9F72F5F3F4F129627304C
:10018000310521F7A6CF991B79E004C0991F961776
:1001900008F0961B881F7A95C9F780950895F89402
:0201A000FFCF8F
:0A01A200C0F9A4B0999282F8809091
:00000001FF
