:100000000C942A000C943F000C943F000C943F0089
:100010000C943F000C943F000C943F000C943F0064
:100020000C943F000C943F000C943F000C943F0054
:100030000C943F000C943F000C943F000C943F0044
:100040000C943F000C943F000C943F000C943F0034
:100050000C943F0011241FBECFE5D4E0DEBFCDBF1E
:1000600010E0A0E6B0E0E4E1F4E002C005900D92FB
:10007000A437B107D9F70E943C010C9408020C94F4
:10008000000084EA86BF06B607FEFDCF089584E926
:1000900086BF089583B984E886BF06B607FEFDCF04
:1000A000089584EC86BF06B607FEFDCF83B190E0CD
:1000B000089584E886BF06B607FEFDCF83B190E0C1
:1000C00008956AE070E00E94E00124E0660F771F67
:1000D0002A95E1F7862B972B08959C01AC0184E0CB
:1000E000559547958A95E1F76AE0649FC001659F41
:1000F000900D11242F703327820F931F0895EF92D4
:10010000FF920F931F93CF93DF93EC018B017A0142
:100110000E94410080ED90E00E944A0080E090E063
:100120000E944A000E94410081ED90E00E944A0036
:100130000E9451000E946D00F701918380830E940C
:1001400051000E946D00F801918380830E94590044
:100150000E946D009983888384E986BFDF91CF91E7
:100160001F910F91FF90EF900895EF92FF920F93E0
:100170001F93CF93DF93EC018B017A010E94410022
:1001800080ED90E00E944A0084E090E00E944A00E6
:100190000E94410081ED90E00E944A000E945100BF
:1001A0000E946D00F701918380830E9451000E949C
:1001B0006D00F801918380830E9459000E946D00B8
:1001C0009983888384E986BFDF91CF911F910F9136
:1001D000FF90EF90089511B880E280B90895EF92F2
:1001E000FF920F931F93CF93DF93FC019B017A0142
:1001F000633071051CF4245F3F4F3197CF0164E6F3
:1002000070E00E94E001EB018C012F5F3F4F4DE059
:10021000429FC001439F900D112465E070E00E9451
:10022000E0019B012E0D3F1D200F311F17FF02C063
:100230000D5F1F4FC8019595879595958795280F58
:10024000391FCF0160E971E00E94E001C901860F0A
:10025000971F45E04C9F90014D9F300D1124820F58
:10026000931F67E070E00E94E001DF91CF911F9142
:100270000F91FF90EF900895CDB7DEB7E8970FB6D6
:10028000F894DEBF0FBECDBF8FEF8ABB87BB84BBA8
:100290000E94EB0084E1E0E6F0E0DE0111960190BF
:1002A0000D928A95E1F70AE010E0EE24E394F12C38
:1002B000AE014D5C5F4FBE016B5C7F4FCE01C796B8
:1002C0000E947F00AE01435D5F4FBE01615D7F4FC5
:1002D000CE01C1960E94B50089A99AA9B8010E94D1
:1002E000E0017AA369A39CA38BA38FA598A9B80169
:1002F0000E94E0017EA36DA398A78FA38DA59EA564
:10030000B8010E94E0017AA769A79CA78BA78FA9D3
:1003100098ADB8010E94E0017E8B6D8B988F8F8B1A
:100320008DA99EA9B8010E94E0017A8F698F9C8FE8
:100330008B8F8BA99CA9B8010E94E0017E8F6D8FE5
:1003400098A38F8F9E012B5E3F4FDE01919680E038
:1003500090E0F901419151919F01FA01EE0FFF1FC9
:10036000AE014F5F5F4FE40FF51F40814BBBED9136
:10037000FD91EE0FFF1FBE016F5F7F4FE60FF71F6E
:100380004081BC016D7F6130710509F4405848BB64
:10039000AC014E5F5F4FF70102C0EE0FFF1F4A95A1
:1003A000E2F7E5BBFFE748E351E0F1504040504041
:1003B000E1F700C0000001968630910551F678CF34
:1003C00097FB072E16F4009407D077FD09D00E9402
:1003D000F40107FC05D03EF4909581959F4F089558
:1003E000709561957F4F0895AA1BBB1B51E107C013
:1003F000AA1FBB1FA617B70710F0A61BB70B881FB5
:10040000991F5A95A9F780959095BC01CD01089543
:04041000F894FFCF8E
:10041400C000F900A400B000990092008200F80026
:0404240080009000C4
:00000001FF
